{
    "contractName": "NFTMarketplace",
    "abi": [
        {
            "inputs": [],
            "stateMutability": "nonpayable",
            "type": "constructor"
        },
        {
            "anonymous": false,
            "inputs": [
                {
                    "indexed": true,
                    "internalType": "address",
                    "name": "owner",
                    "type": "address"
                },
                {
                    "indexed": true,
                    "internalType": "address",
                    "name": "approved",
                    "type": "address"
                },
                {
                    "indexed": true,
                    "internalType": "uint256",
                    "name": "tokenId",
                    "type": "uint256"
                }
            ],
            "name": "Approval",
            "type": "event"
        },
        {
            "anonymous": false,
            "inputs": [
                {
                    "indexed": true,
                    "internalType": "address",
                    "name": "owner",
                    "type": "address"
                },
                {
                    "indexed": true,
                    "internalType": "address",
                    "name": "operator",
                    "type": "address"
                },
                {
                    "indexed": false,
                    "internalType": "bool",
                    "name": "approved",
                    "type": "bool"
                }
            ],
            "name": "ApprovalForAll",
            "type": "event"
        },
        {
            "anonymous": false,
            "inputs": [
                {
                    "indexed": true,
                    "internalType": "uint256",
                    "name": "tokenId",
                    "type": "uint256"
                },
                {
                    "indexed": false,
                    "internalType": "address",
                    "name": "owner",
                    "type": "address"
                },
                {
                    "indexed": false,
                    "internalType": "address",
                    "name": "seller",
                    "type": "address"
                },
                {
                    "indexed": false,
                    "internalType": "uint256",
                    "name": "price",
                    "type": "uint256"
                },
                {
                    "indexed": false,
                    "internalType": "bool",
                    "name": "currentlyListed",
                    "type": "bool"
                }
            ],
            "name": "TokenListedSuccess",
            "type": "event"
        },
        {
            "anonymous": false,
            "inputs": [
                {
                    "indexed": true,
                    "internalType": "address",
                    "name": "from",
                    "type": "address"
                },
                {
                    "indexed": true,
                    "internalType": "address",
                    "name": "to",
                    "type": "address"
                },
                {
                    "indexed": true,
                    "internalType": "uint256",
                    "name": "tokenId",
                    "type": "uint256"
                }
            ],
            "name": "Transfer",
            "type": "event"
        },
        {
            "inputs": [
                {
                    "internalType": "address",
                    "name": "to",
                    "type": "address"
                },
                {
                    "internalType": "uint256",
                    "name": "tokenId",
                    "type": "uint256"
                }
            ],
            "name": "approve",
            "outputs": [],
            "stateMutability": "nonpayable",
            "type": "function"
        },
        {
            "inputs": [
                {
                    "internalType": "address",
                    "name": "owner",
                    "type": "address"
                }
            ],
            "name": "balanceOf",
            "outputs": [
                {
                    "internalType": "uint256",
                    "name": "",
                    "type": "uint256"
                }
            ],
            "stateMutability": "view",
            "type": "function"
        },
        {
            "inputs": [
                {
                    "internalType": "string",
                    "name": "tokenURI",
                    "type": "string"
                },
                {
                    "internalType": "uint256",
                    "name": "price",
                    "type": "uint256"
                }
            ],
            "name": "createToken",
            "outputs": [
                {
                    "internalType": "uint256",
                    "name": "",
                    "type": "uint256"
                }
            ],
            "stateMutability": "payable",
            "type": "function"
        },
        {
            "inputs": [],
            "name": "deadline",
            "outputs": [
                {
                    "internalType": "uint256",
                    "name": "",
                    "type": "uint256"
                }
            ],
            "stateMutability": "view",
            "type": "function"
        },
        {
            "inputs": [
                {
                    "internalType": "uint256",
                    "name": "tokenId",
                    "type": "uint256"
                },
                {
                    "internalType": "uint256",
                    "name": "numberOfDays",
                    "type": "uint256"
                }
            ],
            "name": "executeSale",
            "outputs": [],
            "stateMutability": "payable",
            "type": "function"
        },
        {
            "inputs": [],
            "name": "getAllNFTs",
            "outputs": [
                {
                    "components": [
                        {
                            "internalType": "uint256",
                            "name": "tokenId",
                            "type": "uint256"
                        },
                        {
                            "internalType": "address payable",
                            "name": "owner",
                            "type": "address"
                        },
                        {
                            "internalType": "address payable",
                            "name": "seller",
                            "type": "address"
                        },
                        {
                            "internalType": "uint256",
                            "name": "price",
                            "type": "uint256"
                        },
                        {
                            "internalType": "bool",
                            "name": "currentlyListed",
                            "type": "bool"
                        }
                    ],
                    "internalType": "struct NFTMarketplace.ListedToken[]",
                    "name": "",
                    "type": "tuple[]"
                }
            ],
            "stateMutability": "view",
            "type": "function"
        },
        {
            "inputs": [
                {
                    "internalType": "uint256",
                    "name": "tokenId",
                    "type": "uint256"
                }
            ],
            "name": "getApproved",
            "outputs": [
                {
                    "internalType": "address",
                    "name": "",
                    "type": "address"
                }
            ],
            "stateMutability": "view",
            "type": "function"
        },
        {
            "inputs": [],
            "name": "getCurrentToken",
            "outputs": [
                {
                    "internalType": "uint256",
                    "name": "",
                    "type": "uint256"
                }
            ],
            "stateMutability": "view",
            "type": "function"
        },
        {
            "inputs": [],
            "name": "getLatestIdToListedToken",
            "outputs": [
                {
                    "components": [
                        {
                            "internalType": "uint256",
                            "name": "tokenId",
                            "type": "uint256"
                        },
                        {
                            "internalType": "address payable",
                            "name": "owner",
                            "type": "address"
                        },
                        {
                            "internalType": "address payable",
                            "name": "seller",
                            "type": "address"
                        },
                        {
                            "internalType": "uint256",
                            "name": "price",
                            "type": "uint256"
                        },
                        {
                            "internalType": "bool",
                            "name": "currentlyListed",
                            "type": "bool"
                        }
                    ],
                    "internalType": "struct NFTMarketplace.ListedToken",
                    "name": "",
                    "type": "tuple"
                }
            ],
            "stateMutability": "view",
            "type": "function"
        },
        {
            "inputs": [],
            "name": "getListPrice",
            "outputs": [
                {
                    "internalType": "uint256",
                    "name": "",
                    "type": "uint256"
                }
            ],
            "stateMutability": "view",
            "type": "function"
        },
        {
            "inputs": [
                {
                    "internalType": "uint256",
                    "name": "tokenId",
                    "type": "uint256"
                }
            ],
            "name": "getListedTokenForId",
            "outputs": [
                {
                    "components": [
                        {
                            "internalType": "uint256",
                            "name": "tokenId",
                            "type": "uint256"
                        },
                        {
                            "internalType": "address payable",
                            "name": "owner",
                            "type": "address"
                        },
                        {
                            "internalType": "address payable",
                            "name": "seller",
                            "type": "address"
                        },
                        {
                            "internalType": "uint256",
                            "name": "price",
                            "type": "uint256"
                        },
                        {
                            "internalType": "bool",
                            "name": "currentlyListed",
                            "type": "bool"
                        }
                    ],
                    "internalType": "struct NFTMarketplace.ListedToken",
                    "name": "",
                    "type": "tuple"
                }
            ],
            "stateMutability": "view",
            "type": "function"
        },
        {
            "inputs": [],
            "name": "getMyNFTs",
            "outputs": [
                {
                    "components": [
                        {
                            "internalType": "uint256",
                            "name": "tokenId",
                            "type": "uint256"
                        },
                        {
                            "internalType": "address payable",
                            "name": "owner",
                            "type": "address"
                        },
                        {
                            "internalType": "address payable",
                            "name": "seller",
                            "type": "address"
                        },
                        {
                            "internalType": "uint256",
                            "name": "price",
                            "type": "uint256"
                        },
                        {
                            "internalType": "bool",
                            "name": "currentlyListed",
                            "type": "bool"
                        }
                    ],
                    "internalType": "struct NFTMarketplace.ListedToken[]",
                    "name": "",
                    "type": "tuple[]"
                }
            ],
            "stateMutability": "view",
            "type": "function"
        },
        {
            "inputs": [
                {
                    "internalType": "address",
                    "name": "owner",
                    "type": "address"
                },
                {
                    "internalType": "address",
                    "name": "operator",
                    "type": "address"
                }
            ],
            "name": "isApprovedForAll",
            "outputs": [
                {
                    "internalType": "bool",
                    "name": "",
                    "type": "bool"
                }
            ],
            "stateMutability": "view",
            "type": "function"
        },
        {
            "inputs": [],
            "name": "name",
            "outputs": [
                {
                    "internalType": "string",
                    "name": "",
                    "type": "string"
                }
            ],
            "stateMutability": "view",
            "type": "function"
        },
        {
            "inputs": [
                {
                    "internalType": "uint256",
                    "name": "tokenId",
                    "type": "uint256"
                }
            ],
            "name": "ownerOf",
            "outputs": [
                {
                    "internalType": "address",
                    "name": "",
                    "type": "address"
                }
            ],
            "stateMutability": "view",
            "type": "function"
        },
        {
            "inputs": [
                {
                    "internalType": "address",
                    "name": "from",
                    "type": "address"
                },
                {
                    "internalType": "address",
                    "name": "to",
                    "type": "address"
                },
                {
                    "internalType": "uint256",
                    "name": "tokenId",
                    "type": "uint256"
                }
            ],
            "name": "safeTransferFrom",
            "outputs": [],
            "stateMutability": "nonpayable",
            "type": "function"
        },
        {
            "inputs": [
                {
                    "internalType": "address",
                    "name": "from",
                    "type": "address"
                },
                {
                    "internalType": "address",
                    "name": "to",
                    "type": "address"
                },
                {
                    "internalType": "uint256",
                    "name": "tokenId",
                    "type": "uint256"
                },
                {
                    "internalType": "bytes",
                    "name": "_data",
                    "type": "bytes"
                }
            ],
            "name": "safeTransferFrom",
            "outputs": [],
            "stateMutability": "nonpayable",
            "type": "function"
        },
        {
            "inputs": [
                {
                    "internalType": "address",
                    "name": "operator",
                    "type": "address"
                },
                {
                    "internalType": "bool",
                    "name": "approved",
                    "type": "bool"
                }
            ],
            "name": "setApprovalForAll",
            "outputs": [],
            "stateMutability": "nonpayable",
            "type": "function"
        },
        {
            "inputs": [
                {
                    "internalType": "bytes4",
                    "name": "interfaceId",
                    "type": "bytes4"
                }
            ],
            "name": "supportsInterface",
            "outputs": [
                {
                    "internalType": "bool",
                    "name": "",
                    "type": "bool"
                }
            ],
            "stateMutability": "view",
            "type": "function"
        },
        {
            "inputs": [],
            "name": "symbol",
            "outputs": [
                {
                    "internalType": "string",
                    "name": "",
                    "type": "string"
                }
            ],
            "stateMutability": "view",
            "type": "function"
        },
        {
            "inputs": [
                {
                    "internalType": "uint256",
                    "name": "tokenId",
                    "type": "uint256"
                }
            ],
            "name": "tokenURI",
            "outputs": [
                {
                    "internalType": "string",
                    "name": "",
                    "type": "string"
                }
            ],
            "stateMutability": "view",
            "type": "function"
        },
        {
            "inputs": [
                {
                    "internalType": "address",
                    "name": "from",
                    "type": "address"
                },
                {
                    "internalType": "address",
                    "name": "to",
                    "type": "address"
                },
                {
                    "internalType": "uint256",
                    "name": "tokenId",
                    "type": "uint256"
                }
            ],
            "name": "transferFrom",
            "outputs": [],
            "stateMutability": "nonpayable",
            "type": "function"
        },
        {
            "inputs": [
                {
                    "internalType": "uint256",
                    "name": "_listPrice",
                    "type": "uint256"
                }
            ],
            "name": "updateListPrice",
            "outputs": [],
            "stateMutability": "payable",
            "type": "function"
        }
    ],
    "bytecode": "6080604052662386f26fc10000600a553480156200001c57600080fd5b506040518060400160405280600e81526020016d4e46544d61726b6574706c61636560901b815250604051806040016040528060048152602001634e46544d60e01b815250816000908162000072919062000141565b50600162000081828262000141565b5050600980546001600160a01b03191633179055506200020d565b634e487b7160e01b600052604160045260246000fd5b600181811c90821680620000c757607f821691505b602082108103620000e857634e487b7160e01b600052602260045260246000fd5b50919050565b601f8211156200013c57600081815260208120601f850160051c81016020861015620001175750805b601f850160051c820191505b81811015620001385782815560010162000123565b5050505b505050565b81516001600160401b038111156200015d576200015d6200009c565b62000175816200016e8454620000b2565b84620000ee565b602080601f831160018114620001ad5760008415620001945750858301515b600019600386901b1c1916600185901b17855562000138565b600085815260208120601f198616915b82811015620001de57888601518255948401946001909101908401620001bd565b5085821015620001fd5787850151600019600388901b60f8161c191681555b5050505050600190811b01905550565b612251806200021d6000396000f3fe6080604052600436106101405760003560e01c806370a08231116100b6578063c322579c1161006f578063c322579c14610379578063c87b56dd1461038c578063d1a88ae5146103ac578063e0391b09146103c1578063e985e9c5146103d6578063ef2d17461461041f57600080fd5b806370a08231146102c457806372b3b620146102e45780638e264590146102f757806395d89b4114610324578063a22cb46514610339578063b88d4fde1461035957600080fd5b806329dcb0cf1161010857806329dcb0cf1461021657806342842e0e1461023a5780634437b60b1461025a578063629cb2e41461026d5780636352211e1461028f57806368f1945f146102af57600080fd5b806301ffc9a71461014557806306fdde031461017a578063081812fc1461019c578063095ea7b3146101d457806323b872dd146101f6575b600080fd5b34801561015157600080fd5b50610165610160366004611b0a565b610434565b60405190151581526020015b60405180910390f35b34801561018657600080fd5b5061018f610486565b6040516101719190611b7f565b3480156101a857600080fd5b506101bc6101b7366004611b92565b610518565b6040516001600160a01b039091168152602001610171565b3480156101e057600080fd5b506101f46101ef366004611bc7565b6105a5565b005b34801561020257600080fd5b506101f4610211366004611bf1565b6106ba565b34801561022257600080fd5b5061022c600b5481565b604051908152602001610171565b34801561024657600080fd5b506101f4610255366004611bf1565b6106eb565b6101f4610268366004611c2d565b610706565b34801561027957600080fd5b50610282610883565b6040516101719190611c8f565b34801561029b57600080fd5b506101bc6102aa366004611b92565b610aac565b3480156102bb57600080fd5b50600a5461022c565b3480156102d057600080fd5b5061022c6102df366004611cdd565b610b23565b61022c6102f2366004611d84565b610baa565b34801561030357600080fd5b50610317610312366004611b92565b610c98565b6040516101719190611ddd565b34801561033057600080fd5b5061018f610d02565b34801561034557600080fd5b506101f4610354366004611deb565b610d11565b34801561036557600080fd5b506101f4610374366004611e27565b610d20565b6101f4610387366004611b92565b610d58565b34801561039857600080fd5b5061018f6103a7366004611b92565b610dc3565b3480156103b857600080fd5b50610317610f39565b3480156103cd57600080fd5b50610282610fb0565b3480156103e257600080fd5b506101656103f1366004611ea3565b6001600160a01b03918216600090815260056020908152604080832093909416825291909152205460ff1690565b34801561042b57600080fd5b5061022c6110db565b60006001600160e01b031982166380ac58cd60e01b148061046557506001600160e01b03198216635b5e139f60e01b145b8061048057506301ffc9a760e01b6001600160e01b03198316145b92915050565b60606000805461049590611ed6565b80601f01602080910402602001604051908101604052809291908181526020018280546104c190611ed6565b801561050e5780601f106104e35761010080835404028352916020019161050e565b820191906000526020600020905b8154815290600101906020018083116104f157829003601f168201915b5050505050905090565b6000610523826110eb565b6105895760405162461bcd60e51b815260206004820152602c60248201527f4552433732313a20617070726f76656420717565727920666f72206e6f6e657860448201526b34b9ba32b73a103a37b5b2b760a11b60648201526084015b60405180910390fd5b506000908152600460205260409020546001600160a01b031690565b60006105b082610aac565b9050806001600160a01b0316836001600160a01b03160361061d5760405162461bcd60e51b815260206004820152602160248201527f4552433732313a20617070726f76616c20746f2063757272656e74206f776e656044820152603960f91b6064820152608401610580565b336001600160a01b0382161480610639575061063981336103f1565b6106ab5760405162461bcd60e51b815260206004820152603860248201527f4552433732313a20617070726f76652063616c6c6572206973206e6f74206f7760448201527f6e6572206e6f7220617070726f76656420666f7220616c6c00000000000000006064820152608401610580565b6106b58383611108565b505050565b6106c43382611176565b6106e05760405162461bcd60e51b815260040161058090611f10565b6106b583838361125f565b6106b583838360405180602001604052806000815250610d20565b6000828152600c6020526040902060038101546002909101546001600160a01b031634821461079f576040805162461bcd60e51b81526020600482015260248101919091527f506c65617365207375626d6974207468652061736b696e67207072696365206960448201527f6e206f7264657220746f20636f6d706c657465207468652070757263686173656064820152608401610580565b6000848152600c6020526040902060048101805460ff1916600117905560020180546001600160a01b031916331790556107dd600880546001019055565b6107e830338661125f565b6107f230856105a5565b600954600a546040516001600160a01b039092169181156108fc0291906000818181858888f1935050505015801561082e573d6000803e3d6000fd5b506040516001600160a01b038216903480156108fc02916000818181858888f19350505050158015610864573d6000803e3d6000fd5b50610870836019611f77565b61087a9042611f96565b600b5550505050565b6060600061089060075490565b905060008060005b838110156109285733600c60006108b0846001611f96565b81526020810191909152604001600020600101546001600160a01b03161480610903575033600c60006108e4846001611f96565b81526020810191909152604001600020600201546001600160a01b0316145b1561091657610913600184611f96565b92505b8061092081611fae565b915050610898565b5060008267ffffffffffffffff81111561094457610944611cf8565b60405190808252806020026020018201604052801561097d57816020015b61096a611ac3565b8152602001906001900390816109625790505b50905060005b84811015610aa35733600c600061099b846001611f96565b81526020810191909152604001600020600101546001600160a01b031614806109ee575033600c60006109cf846001611f96565b81526020810191909152604001600020600201546001600160a01b0316145b15610a91576000610a00826001611f96565b6000818152600c6020908152604091829020825160a0810184528154815260018201546001600160a01b039081169382019390935260028201549092169282019290925260038201546060820152600482015460ff161515608082015285519293509091859087908110610a7657610a76611fc7565b6020908102919091010152610a8c600186611f96565b945050505b80610a9b81611fae565b915050610983565b50949350505050565b6000818152600260205260408120546001600160a01b0316806104805760405162461bcd60e51b815260206004820152602960248201527f4552433732313a206f776e657220717565727920666f72206e6f6e657869737460448201526832b73a103a37b5b2b760b91b6064820152608401610580565b60006001600160a01b038216610b8e5760405162461bcd60e51b815260206004820152602a60248201527f4552433732313a2062616c616e636520717565727920666f7220746865207a65604482015269726f206164647265737360b01b6064820152608401610580565b506001600160a01b031660009081526003602052604090205490565b6000600a543414610bfd5760405162461bcd60e51b815260206004820152601a60248201527f53656e6420656e6f75676820657468657220746f206c697374200000000000006044820152606401610580565b60008211610c585760405162461bcd60e51b815260206004820152602260248201527f4d616b652073757265207468652070726963652069736e2774206e6567617469604482015261766560f01b6064820152608401610580565b610c66600780546001019055565b6000610c7160075490565b9050610c7d33826113fb565b610c878185611415565b610c918184611499565b9392505050565b610ca0611ac3565b506000908152600c6020908152604091829020825160a0810184528154815260018201546001600160a01b03908116938201939093526002820154909216928201929092526003820154606082015260049091015460ff161515608082015290565b60606001805461049590611ed6565b610d1c338383611583565b5050565b610d2a3383611176565b610d465760405162461bcd60e51b815260040161058090611f10565b610d5284848484611651565b50505050565b6009546001600160a01b03163314610dbe5760405162461bcd60e51b815260206004820152602360248201527f4f6e6c79206f776e65722063616e20757064617465206c697374696e6720707260448201526269636560e81b6064820152608401610580565b600a55565b6060610dce826110eb565b610e345760405162461bcd60e51b815260206004820152603160248201527f45524337323155524953746f726167653a2055524920717565727920666f72206044820152703737b732bc34b9ba32b73a103a37b5b2b760791b6064820152608401610580565b60008281526006602052604081208054610e4d90611ed6565b80601f0160208091040260200160405190810160405280929190818152602001828054610e7990611ed6565b8015610ec65780601f10610e9b57610100808354040283529160200191610ec6565b820191906000526020600020905b815481529060010190602001808311610ea957829003601f168201915b505050505090506000610ee460408051602081019091526000815290565b90508051600003610ef6575092915050565b815115610f28578082604051602001610f10929190611fdd565b60405160208183030381529060405292505050919050565b610f3184611684565b949350505050565b610f41611ac3565b6000610f4c60075490565b6000908152600c6020908152604091829020825160a0810184528154815260018201546001600160a01b03908116938201939093526002820154909216928201929092526003820154606082015260049091015460ff161515608082015292915050565b60606000610fbd60075490565b905060008167ffffffffffffffff811115610fda57610fda611cf8565b60405190808252806020026020018201604052801561101357816020015b611000611ac3565b815260200190600190039081610ff85790505b5090506000805b838110156110d257600061102f826001611f96565b6000818152600c6020908152604091829020825160a0810184528154815260018201546001600160a01b039081169382019390935260028201549092169282019290925260038201546060820152600482015460ff1615156080820152865192935090918690869081106110a5576110a5611fc7565b60209081029190910101526110bb600185611f96565b9350505080806110ca90611fae565b91505061101a565b50909392505050565b60006110e660075490565b905090565b6000908152600260205260409020546001600160a01b0316151590565b600081815260046020526040902080546001600160a01b0319166001600160a01b038416908117909155819061113d82610aac565b6001600160a01b03167f8c5be1e5ebec7d5bd14f71427d1e84f3dd0314c0f7b2291e5b200ac8c7c3b92560405160405180910390a45050565b6000611181826110eb565b6111e25760405162461bcd60e51b815260206004820152602c60248201527f4552433732313a206f70657261746f7220717565727920666f72206e6f6e657860448201526b34b9ba32b73a103a37b5b2b760a11b6064820152608401610580565b60006111ed83610aac565b9050806001600160a01b0316846001600160a01b0316148061123457506001600160a01b0380821660009081526005602090815260408083209388168352929052205460ff165b80610f315750836001600160a01b031661124d84610518565b6001600160a01b031614949350505050565b826001600160a01b031661127282610aac565b6001600160a01b0316146112d65760405162461bcd60e51b815260206004820152602560248201527f4552433732313a207472616e736665722066726f6d20696e636f72726563742060448201526437bbb732b960d91b6064820152608401610580565b6001600160a01b0382166113385760405162461bcd60e51b8152602060048201526024808201527f4552433732313a207472616e7366657220746f20746865207a65726f206164646044820152637265737360e01b6064820152608401610580565b611343600082611108565b6001600160a01b038316600090815260036020526040812080546001929061136c90849061200c565b90915550506001600160a01b038216600090815260036020526040812080546001929061139a908490611f96565b909155505060008181526002602052604080822080546001600160a01b0319166001600160a01b0386811691821790925591518493918716917fddf252ad1be2c89b69c2b068fc378daa952ba7f163c4a11628f55a4df523b3ef91a4505050565b610d1c82826040518060200160405280600081525061175b565b61141e826110eb565b6114815760405162461bcd60e51b815260206004820152602e60248201527f45524337323155524953746f726167653a2055524920736574206f66206e6f6e60448201526d32bc34b9ba32b73a103a37b5b2b760911b6064820152608401610580565b60008281526006602052604090206106b58282612071565b6040805160a081018252838152306020808301828152338486018181526060860188815260016080880181815260008c8152600c9097529890952096518755925193860180546001600160a01b039586166001600160a01b03199182161790915590516002870180549190951691161790925551600384015592516004909201805492151560ff199093169290921790915561153691908461125f565b604080513081523360208201529081018290526001606082015282907f9339409317fd01fabff48b703019016f49159bacc801ae872d2ca637d226e4c09060800160405180910390a25050565b816001600160a01b0316836001600160a01b0316036115e45760405162461bcd60e51b815260206004820152601960248201527f4552433732313a20617070726f766520746f2063616c6c6572000000000000006044820152606401610580565b6001600160a01b03838116600081815260056020908152604080832094871680845294825291829020805460ff191686151590811790915591519182527f17307eab39ab6107e8899845ad3d59bd9653f200f220920489ca2b5937696c31910160405180910390a3505050565b61165c84848461125f565b6116688484848461178e565b610d525760405162461bcd60e51b815260040161058090612131565b606061168f826110eb565b6116f35760405162461bcd60e51b815260206004820152602f60248201527f4552433732314d657461646174613a2055524920717565727920666f72206e6f60448201526e3732bc34b9ba32b73a103a37b5b2b760891b6064820152608401610580565b600061170a60408051602081019091526000815290565b9050600081511161172a5760405180602001604052806000815250610c91565b806117348461188f565b604051602001611745929190611fdd565b6040516020818303038152906040529392505050565b6117658383611990565b611772600084848461178e565b6106b55760405162461bcd60e51b815260040161058090612131565b60006001600160a01b0384163b1561188457604051630a85bd0160e11b81526001600160a01b0385169063150b7a02906117d2903390899088908890600401612183565b6020604051808303816000875af192505050801561180d575060408051601f3d908101601f1916820190925261180a918101906121c0565b60015b61186a573d80801561183b576040519150601f19603f3d011682016040523d82523d6000602084013e611840565b606091505b5080516000036118625760405162461bcd60e51b815260040161058090612131565b805181602001fd5b6001600160e01b031916630a85bd0160e11b149050610f31565b506001949350505050565b6060816000036118b65750506040805180820190915260018152600360fc1b602082015290565b8160005b81156118e057806118ca81611fae565b91506118d99050600a836121f3565b91506118ba565b60008167ffffffffffffffff8111156118fb576118fb611cf8565b6040519080825280601f01601f191660200182016040528015611925576020820181803683370190505b5090505b8415610f315761193a60018361200c565b9150611947600a86612207565b611952906030611f96565b60f81b81838151811061196757611967611fc7565b60200101906001600160f81b031916908160001a905350611989600a866121f3565b9450611929565b6001600160a01b0382166119e65760405162461bcd60e51b815260206004820181905260248201527f4552433732313a206d696e7420746f20746865207a65726f20616464726573736044820152606401610580565b6119ef816110eb565b15611a3c5760405162461bcd60e51b815260206004820152601c60248201527f4552433732313a20746f6b656e20616c7265616479206d696e746564000000006044820152606401610580565b6001600160a01b0382166000908152600360205260408120805460019290611a65908490611f96565b909155505060008181526002602052604080822080546001600160a01b0319166001600160a01b03861690811790915590518392907fddf252ad1be2c89b69c2b068fc378daa952ba7f163c4a11628f55a4df523b3ef908290a45050565b6040805160a08101825260008082526020820181905291810182905260608101829052608081019190915290565b6001600160e01b031981168114611b0757600080fd5b50565b600060208284031215611b1c57600080fd5b8135610c9181611af1565b60005b83811015611b42578181015183820152602001611b2a565b83811115610d525750506000910152565b60008151808452611b6b816020860160208601611b27565b601f01601f19169290920160200192915050565b602081526000610c916020830184611b53565b600060208284031215611ba457600080fd5b5035919050565b80356001600160a01b0381168114611bc257600080fd5b919050565b60008060408385031215611bda57600080fd5b611be383611bab565b946020939093013593505050565b600080600060608486031215611c0657600080fd5b611c0f84611bab565b9250611c1d60208501611bab565b9150604084013590509250925092565b60008060408385031215611c4057600080fd5b50508035926020909101359150565b805182526020808201516001600160a01b039081169184019190915260408083015190911690830152606080820151908301526080908101511515910152565b6020808252825182820181905260009190848201906040850190845b81811015611cd157611cbe838551611c4f565b9284019260a09290920191600101611cab565b50909695505050505050565b600060208284031215611cef57600080fd5b610c9182611bab565b634e487b7160e01b600052604160045260246000fd5b600067ffffffffffffffff80841115611d2957611d29611cf8565b604051601f8501601f19908116603f01168101908282118183101715611d5157611d51611cf8565b81604052809350858152868686011115611d6a57600080fd5b858560208301376000602087830101525050509392505050565b60008060408385031215611d9757600080fd5b823567ffffffffffffffff811115611dae57600080fd5b8301601f81018513611dbf57600080fd5b611dce85823560208401611d0e565b95602094909401359450505050565b60a081016104808284611c4f565b60008060408385031215611dfe57600080fd5b611e0783611bab565b915060208301358015158114611e1c57600080fd5b809150509250929050565b60008060008060808587031215611e3d57600080fd5b611e4685611bab565b9350611e5460208601611bab565b925060408501359150606085013567ffffffffffffffff811115611e7757600080fd5b8501601f81018713611e8857600080fd5b611e9787823560208401611d0e565b91505092959194509250565b60008060408385031215611eb657600080fd5b611ebf83611bab565b9150611ecd60208401611bab565b90509250929050565b600181811c90821680611eea57607f821691505b602082108103611f0a57634e487b7160e01b600052602260045260246000fd5b50919050565b60208082526031908201527f4552433732313a207472616e736665722063616c6c6572206973206e6f74206f6040820152701ddb995c881b9bdc88185c1c1c9bdd9959607a1b606082015260800190565b634e487b7160e01b600052601160045260246000fd5b6000816000190483118215151615611f9157611f91611f61565b500290565b60008219821115611fa957611fa9611f61565b500190565b600060018201611fc057611fc0611f61565b5060010190565b634e487b7160e01b600052603260045260246000fd5b60008351611fef818460208801611b27565b835190830190612003818360208801611b27565b01949350505050565b60008282101561201e5761201e611f61565b500390565b601f8211156106b557600081815260208120601f850160051c8101602086101561204a5750805b601f850160051c820191505b8181101561206957828155600101612056565b505050505050565b815167ffffffffffffffff81111561208b5761208b611cf8565b61209f816120998454611ed6565b84612023565b602080601f8311600181146120d457600084156120bc5750858301515b600019600386901b1c1916600185901b178555612069565b600085815260208120601f198616915b82811015612103578886015182559484019460019091019084016120e4565b50858210156121215787850151600019600388901b60f8161c191681555b5050505050600190811b01905550565b60208082526032908201527f4552433732313a207472616e7366657220746f206e6f6e20455243373231526560408201527131b2b4bb32b91034b6b83632b6b2b73a32b960711b606082015260800190565b6001600160a01b03858116825284166020820152604081018390526080606082018190526000906121b690830184611b53565b9695505050505050565b6000602082840312156121d257600080fd5b8151610c9181611af1565b634e487b7160e01b600052601260045260246000fd5b600082612202576122026121dd565b500490565b600082612216576122166121dd565b50069056fea2646970667358221220c0139344b39ca7572cef35eaa4aba5bafefc6e01a8ac089c3f2b6943df92fb7e64736f6c634300080f0033",
    "sourcePath": "c:/Users/ARAVIND/Documents/Bio_project/NFT-Marketplace-Tutorial/contracts/NFTMarketplace.sol",
    "compiler": {
        "name": "solc",
        "version": "0.8.15+commit.e14f2714"
    },
    "functionHashes": {
        "approve(address,uint256)": "095ea7b3",
        "balanceOf(address)": "70a08231",
        "createToken(string,uint256)": "72b3b620",
        "deadline()": "29dcb0cf",
        "executeSale(uint256,uint256)": "4437b60b",
        "getAllNFTs()": "e0391b09",
        "getApproved(uint256)": "081812fc",
        "getCurrentToken()": "ef2d1746",
        "getLatestIdToListedToken()": "d1a88ae5",
        "getListPrice()": "68f1945f",
        "getListedTokenForId(uint256)": "8e264590",
        "getMyNFTs()": "629cb2e4",
        "isApprovedForAll(address,address)": "e985e9c5",
        "name()": "06fdde03",
        "ownerOf(uint256)": "6352211e",
        "safeTransferFrom(address,address,uint256)": "42842e0e",
        "safeTransferFrom(address,address,uint256,bytes)": "b88d4fde",
        "setApprovalForAll(address,bool)": "a22cb465",
        "supportsInterface(bytes4)": "01ffc9a7",
        "symbol()": "95d89b41",
        "tokenURI(uint256)": "c87b56dd",
        "transferFrom(address,address,uint256)": "23b872dd",
        "updateListPrice(uint256)": "c322579c"
    },
    "gasEstimates": {
        "creation": {
            "codeDepositCost": "1757000",
            "executionCost": "infinite",
            "totalCost": "infinite"
        },
        "external": {
            "approve(address,uint256)": "infinite",
            "balanceOf(address)": "2612",
            "createToken(string,uint256)": "infinite",
            "deadline()": "2318",
            "executeSale(uint256,uint256)": "infinite",
            "getAllNFTs()": "infinite",
            "getApproved(uint256)": "4799",
            "getCurrentToken()": "2462",
            "getLatestIdToListedToken()": "13556",
            "getListPrice()": "2425",
            "getListedTokenForId(uint256)": "11508",
            "getMyNFTs()": "infinite",
            "isApprovedForAll(address,address)": "infinite",
            "name()": "infinite",
            "ownerOf(uint256)": "2667",
            "safeTransferFrom(address,address,uint256)": "infinite",
            "safeTransferFrom(address,address,uint256,bytes)": "infinite",
            "setApprovalForAll(address,bool)": "26794",
            "supportsInterface(bytes4)": "534",
            "symbol()": "infinite",
            "tokenURI(uint256)": "infinite",
            "transferFrom(address,address,uint256)": "infinite",
            "updateListPrice(uint256)": "24462"
        },
        "internal": {
            "createListedToken(uint256,uint256)": "infinite"
        }
    }
}