{
  "_format": "hh-sol-artifact-1",
  "contractName": "NFTMarketplace",
  "sourceName": "contracts/NFTMarketplace.sol",
  "abi": [
    {
      "inputs": [],
      "stateMutability": "nonpayable",
      "type": "constructor"
    },
    {
      "anonymous": false,
      "inputs": [
        {
          "indexed": true,
          "internalType": "address",
          "name": "owner",
          "type": "address"
        },
        {
          "indexed": true,
          "internalType": "address",
          "name": "approved",
          "type": "address"
        },
        {
          "indexed": true,
          "internalType": "uint256",
          "name": "tokenId",
          "type": "uint256"
        }
      ],
      "name": "Approval",
      "type": "event"
    },
    {
      "anonymous": false,
      "inputs": [
        {
          "indexed": true,
          "internalType": "address",
          "name": "owner",
          "type": "address"
        },
        {
          "indexed": true,
          "internalType": "address",
          "name": "operator",
          "type": "address"
        },
        {
          "indexed": false,
          "internalType": "bool",
          "name": "approved",
          "type": "bool"
        }
      ],
      "name": "ApprovalForAll",
      "type": "event"
    },
    {
      "anonymous": false,
      "inputs": [
        {
          "indexed": true,
          "internalType": "uint256",
          "name": "tokenId",
          "type": "uint256"
        },
        {
          "indexed": false,
          "internalType": "address",
          "name": "owner",
          "type": "address"
        },
        {
          "indexed": false,
          "internalType": "address",
          "name": "seller",
          "type": "address"
        },
        {
          "indexed": false,
          "internalType": "uint256",
          "name": "price",
          "type": "uint256"
        },
        {
          "indexed": false,
          "internalType": "bool",
          "name": "currentlyListed",
          "type": "bool"
        }
      ],
      "name": "TokenListedSuccess",
      "type": "event"
    },
    {
      "anonymous": false,
      "inputs": [
        {
          "indexed": true,
          "internalType": "address",
          "name": "from",
          "type": "address"
        },
        {
          "indexed": true,
          "internalType": "address",
          "name": "to",
          "type": "address"
        },
        {
          "indexed": true,
          "internalType": "uint256",
          "name": "tokenId",
          "type": "uint256"
        }
      ],
      "name": "Transfer",
      "type": "event"
    },
    {
      "inputs": [
        {
          "internalType": "address",
          "name": "to",
          "type": "address"
        },
        {
          "internalType": "uint256",
          "name": "tokenId",
          "type": "uint256"
        }
      ],
      "name": "approve",
      "outputs": [],
      "stateMutability": "nonpayable",
      "type": "function"
    },
    {
      "inputs": [
        {
          "internalType": "address",
          "name": "owner",
          "type": "address"
        }
      ],
      "name": "balanceOf",
      "outputs": [
        {
          "internalType": "uint256",
          "name": "",
          "type": "uint256"
        }
      ],
      "stateMutability": "view",
      "type": "function"
    },
    {
      "inputs": [
        {
          "internalType": "string",
          "name": "tokenURI",
          "type": "string"
        },
        {
          "internalType": "uint256",
          "name": "price",
          "type": "uint256"
        }
      ],
      "name": "createToken",
      "outputs": [
        {
          "internalType": "uint256",
          "name": "",
          "type": "uint256"
        }
      ],
      "stateMutability": "payable",
      "type": "function"
    },
    {
      "inputs": [],
      "name": "deadline",
      "outputs": [
        {
          "internalType": "uint256",
          "name": "",
          "type": "uint256"
        }
      ],
      "stateMutability": "view",
      "type": "function"
    },
    {
      "inputs": [
        {
          "internalType": "uint256",
          "name": "tokenId",
          "type": "uint256"
        }
      ],
      "name": "executeSale",
      "outputs": [],
      "stateMutability": "payable",
      "type": "function"
    },
    {
      "inputs": [],
      "name": "getAllNFTs",
      "outputs": [
        {
          "components": [
            {
              "internalType": "uint256",
              "name": "tokenId",
              "type": "uint256"
            },
            {
              "internalType": "address payable",
              "name": "owner",
              "type": "address"
            },
            {
              "internalType": "address payable",
              "name": "seller",
              "type": "address"
            },
            {
              "internalType": "uint256",
              "name": "price",
              "type": "uint256"
            },
            {
              "internalType": "bool",
              "name": "currentlyListed",
              "type": "bool"
            }
          ],
          "internalType": "struct NFTMarketplace.ListedToken[]",
          "name": "",
          "type": "tuple[]"
        }
      ],
      "stateMutability": "view",
      "type": "function"
    },
    {
      "inputs": [
        {
          "internalType": "uint256",
          "name": "tokenId",
          "type": "uint256"
        }
      ],
      "name": "getApproved",
      "outputs": [
        {
          "internalType": "address",
          "name": "",
          "type": "address"
        }
      ],
      "stateMutability": "view",
      "type": "function"
    },
    {
      "inputs": [],
      "name": "getCurrentToken",
      "outputs": [
        {
          "internalType": "uint256",
          "name": "",
          "type": "uint256"
        }
      ],
      "stateMutability": "view",
      "type": "function"
    },
    {
      "inputs": [],
      "name": "getLatestIdToListedToken",
      "outputs": [
        {
          "components": [
            {
              "internalType": "uint256",
              "name": "tokenId",
              "type": "uint256"
            },
            {
              "internalType": "address payable",
              "name": "owner",
              "type": "address"
            },
            {
              "internalType": "address payable",
              "name": "seller",
              "type": "address"
            },
            {
              "internalType": "uint256",
              "name": "price",
              "type": "uint256"
            },
            {
              "internalType": "bool",
              "name": "currentlyListed",
              "type": "bool"
            }
          ],
          "internalType": "struct NFTMarketplace.ListedToken",
          "name": "",
          "type": "tuple"
        }
      ],
      "stateMutability": "view",
      "type": "function"
    },
    {
      "inputs": [],
      "name": "getListPrice",
      "outputs": [
        {
          "internalType": "uint256",
          "name": "",
          "type": "uint256"
        }
      ],
      "stateMutability": "view",
      "type": "function"
    },
    {
      "inputs": [
        {
          "internalType": "uint256",
          "name": "tokenId",
          "type": "uint256"
        }
      ],
      "name": "getListedTokenForId",
      "outputs": [
        {
          "components": [
            {
              "internalType": "uint256",
              "name": "tokenId",
              "type": "uint256"
            },
            {
              "internalType": "address payable",
              "name": "owner",
              "type": "address"
            },
            {
              "internalType": "address payable",
              "name": "seller",
              "type": "address"
            },
            {
              "internalType": "uint256",
              "name": "price",
              "type": "uint256"
            },
            {
              "internalType": "bool",
              "name": "currentlyListed",
              "type": "bool"
            }
          ],
          "internalType": "struct NFTMarketplace.ListedToken",
          "name": "",
          "type": "tuple"
        }
      ],
      "stateMutability": "view",
      "type": "function"
    },
    {
      "inputs": [],
      "name": "getMyNFTs",
      "outputs": [
        {
          "components": [
            {
              "internalType": "uint256",
              "name": "tokenId",
              "type": "uint256"
            },
            {
              "internalType": "address payable",
              "name": "owner",
              "type": "address"
            },
            {
              "internalType": "address payable",
              "name": "seller",
              "type": "address"
            },
            {
              "internalType": "uint256",
              "name": "price",
              "type": "uint256"
            },
            {
              "internalType": "bool",
              "name": "currentlyListed",
              "type": "bool"
            }
          ],
          "internalType": "struct NFTMarketplace.ListedToken[]",
          "name": "",
          "type": "tuple[]"
        }
      ],
      "stateMutability": "view",
      "type": "function"
    },
    {
      "inputs": [
        {
          "internalType": "address",
          "name": "owner",
          "type": "address"
        },
        {
          "internalType": "address",
          "name": "operator",
          "type": "address"
        }
      ],
      "name": "isApprovedForAll",
      "outputs": [
        {
          "internalType": "bool",
          "name": "",
          "type": "bool"
        }
      ],
      "stateMutability": "view",
      "type": "function"
    },
    {
      "inputs": [],
      "name": "name",
      "outputs": [
        {
          "internalType": "string",
          "name": "",
          "type": "string"
        }
      ],
      "stateMutability": "view",
      "type": "function"
    },
    {
      "inputs": [
        {
          "internalType": "uint256",
          "name": "tokenId",
          "type": "uint256"
        }
      ],
      "name": "ownerOf",
      "outputs": [
        {
          "internalType": "address",
          "name": "",
          "type": "address"
        }
      ],
      "stateMutability": "view",
      "type": "function"
    },
    {
      "inputs": [
        {
          "internalType": "address",
          "name": "from",
          "type": "address"
        },
        {
          "internalType": "address",
          "name": "to",
          "type": "address"
        },
        {
          "internalType": "uint256",
          "name": "tokenId",
          "type": "uint256"
        }
      ],
      "name": "safeTransferFrom",
      "outputs": [],
      "stateMutability": "nonpayable",
      "type": "function"
    },
    {
      "inputs": [
        {
          "internalType": "address",
          "name": "from",
          "type": "address"
        },
        {
          "internalType": "address",
          "name": "to",
          "type": "address"
        },
        {
          "internalType": "uint256",
          "name": "tokenId",
          "type": "uint256"
        },
        {
          "internalType": "bytes",
          "name": "_data",
          "type": "bytes"
        }
      ],
      "name": "safeTransferFrom",
      "outputs": [],
      "stateMutability": "nonpayable",
      "type": "function"
    },
    {
      "inputs": [
        {
          "internalType": "address",
          "name": "operator",
          "type": "address"
        },
        {
          "internalType": "bool",
          "name": "approved",
          "type": "bool"
        }
      ],
      "name": "setApprovalForAll",
      "outputs": [],
      "stateMutability": "nonpayable",
      "type": "function"
    },
    {
      "inputs": [
        {
          "internalType": "bytes4",
          "name": "interfaceId",
          "type": "bytes4"
        }
      ],
      "name": "supportsInterface",
      "outputs": [
        {
          "internalType": "bool",
          "name": "",
          "type": "bool"
        }
      ],
      "stateMutability": "view",
      "type": "function"
    },
    {
      "inputs": [],
      "name": "symbol",
      "outputs": [
        {
          "internalType": "string",
          "name": "",
          "type": "string"
        }
      ],
      "stateMutability": "view",
      "type": "function"
    },
    {
      "inputs": [
        {
          "internalType": "uint256",
          "name": "tokenId",
          "type": "uint256"
        }
      ],
      "name": "tokenURI",
      "outputs": [
        {
          "internalType": "string",
          "name": "",
          "type": "string"
        }
      ],
      "stateMutability": "view",
      "type": "function"
    },
    {
      "inputs": [
        {
          "internalType": "address",
          "name": "from",
          "type": "address"
        },
        {
          "internalType": "address",
          "name": "to",
          "type": "address"
        },
        {
          "internalType": "uint256",
          "name": "tokenId",
          "type": "uint256"
        }
      ],
      "name": "transferFrom",
      "outputs": [],
      "stateMutability": "nonpayable",
      "type": "function"
    },
    {
      "inputs": [
        {
          "internalType": "uint256",
          "name": "_listPrice",
          "type": "uint256"
        }
      ],
      "name": "updateListPrice",
      "outputs": [],
      "stateMutability": "payable",
      "type": "function"
    }
  ],
  "bytecode": "0x6080604052662386f26fc10000600a553480156200001c57600080fd5b50604080518082018252600e81526d4e46544d61726b6574706c61636560901b6020808301918252835180850190945260048452634e46544d60e01b9084015281519192916200006f91600091620000a0565b50805162000085906001906020840190620000a0565b5050600980546001600160a01b031916331790555062000183565b828054620000ae9062000146565b90600052602060002090601f016020900481019282620000d257600085556200011d565b82601f10620000ed57805160ff19168380011785556200011d565b828001600101855582156200011d579182015b828111156200011d57825182559160200191906001019062000100565b506200012b9291506200012f565b5090565b5b808211156200012b576000815560010162000130565b600181811c908216806200015b57607f821691505b602082108114156200017d57634e487b7160e01b600052602260045260246000fd5b50919050565b6121c180620001936000396000f3fe6080604052600436106101405760003560e01c806372b3b620116100b6578063c322579c1161006f578063c322579c14610379578063c87b56dd1461038c578063d1a88ae5146103ac578063e0391b09146103c1578063e985e9c5146103d6578063ef2d17461461041f57600080fd5b806372b3b620146102d15780638e264590146102e457806395d89b41146103115780639b1225c414610326578063a22cb46514610339578063b88d4fde1461035957600080fd5b806329dcb0cf1161010857806329dcb0cf1461021657806342842e0e1461023a578063629cb2e41461025a5780636352211e1461027c57806368f1945f1461029c57806370a08231146102b157600080fd5b806301ffc9a71461014557806306fdde031461017a578063081812fc1461019c578063095ea7b3146101d457806323b872dd146101f6575b600080fd5b34801561015157600080fd5b50610165610160366004611dc7565b610434565b60405190151581526020015b60405180910390f35b34801561018657600080fd5b5061018f610486565b6040516101719190611f93565b3480156101a857600080fd5b506101bc6101b7366004611e55565b610518565b6040516001600160a01b039091168152602001610171565b3480156101e057600080fd5b506101f46101ef366004611d9e565b6105a5565b005b34801561020257600080fd5b506101f4610211366004611cb0565b6106bb565b34801561022257600080fd5b5061022c600d5481565b604051908152602001610171565b34801561024657600080fd5b506101f4610255366004611cb0565b6106ec565b34801561026657600080fd5b5061026f610707565b6040516101719190611f45565b34801561028857600080fd5b506101bc610297366004611e55565b61094c565b3480156102a857600080fd5b50600a5461022c565b3480156102bd57600080fd5b5061022c6102cc366004611c64565b6109c3565b61022c6102df366004611dff565b610a4a565b3480156102f057600080fd5b506103046102ff366004611e55565b610b38565b6040516101719190612049565b34801561031d57600080fd5b5061018f610ba2565b6101f4610334366004611e55565b610bb1565b34801561034557600080fd5b506101f4610354366004611d64565b610d15565b34801561036557600080fd5b506101f4610374366004611ceb565b610d24565b6101f4610387366004611e55565b610d56565b34801561039857600080fd5b5061018f6103a7366004611e55565b610dc1565b3480156103b857600080fd5b50610304610f38565b3480156103cd57600080fd5b5061026f610faf565b3480156103e257600080fd5b506101656103f1366004611c7e565b6001600160a01b03918216600090815260056020908152604080832093909416825291909152205460ff1690565b34801561042b57600080fd5b5061022c6110f6565b60006001600160e01b031982166380ac58cd60e01b148061046557506001600160e01b03198216635b5e139f60e01b145b8061048057506301ffc9a760e01b6001600160e01b03198316145b92915050565b606060008054610495906120c6565b80601f01602080910402602001604051908101604052809291908181526020018280546104c1906120c6565b801561050e5780601f106104e35761010080835404028352916020019161050e565b820191906000526020600020905b8154815290600101906020018083116104f157829003601f168201915b5050505050905090565b600061052382611106565b6105895760405162461bcd60e51b815260206004820152602c60248201527f4552433732313a20617070726f76656420717565727920666f72206e6f6e657860448201526b34b9ba32b73a103a37b5b2b760a11b60648201526084015b60405180910390fd5b506000908152600460205260409020546001600160a01b031690565b60006105b08261094c565b9050806001600160a01b0316836001600160a01b0316141561061e5760405162461bcd60e51b815260206004820152602160248201527f4552433732313a20617070726f76616c20746f2063757272656e74206f776e656044820152603960f91b6064820152608401610580565b336001600160a01b038216148061063a575061063a81336103f1565b6106ac5760405162461bcd60e51b815260206004820152603860248201527f4552433732313a20617070726f76652063616c6c6572206973206e6f74206f7760448201527f6e6572206e6f7220617070726f76656420666f7220616c6c00000000000000006064820152608401610580565b6106b68383611123565b505050565b6106c53382611191565b6106e15760405162461bcd60e51b815260040161058090611ff8565b6106b683838361127a565b6106b683838360405180602001604052806000815250610d24565b6060600061071460075490565b905060008060005b838110156107ac5733600e6000610734846001612057565b81526020810191909152604001600020600101546001600160a01b03161480610787575033600e6000610768846001612057565b81526020810191909152604001600020600201546001600160a01b0316145b1561079a57610797600184612057565b92505b806107a481612101565b91505061071c565b5060008267ffffffffffffffff8111156107d657634e487b7160e01b600052604160045260246000fd5b60405190808252806020026020018201604052801561080f57816020015b6107fc611b0b565b8152602001906001900390816107f45790505b50905060005b848110156109435733600e600061082d846001612057565b81526020810191909152604001600020600101546001600160a01b03161480610880575033600e6000610861846001612057565b81526020810191909152604001600020600201546001600160a01b0316145b15610931576000610892826001612057565b6000818152600e6020908152604091829020825160a0810184528154815260018201546001600160a01b039081169382019390935260028201549092169282019290925260038201546060820152600482015460ff16151560808201528551929350909185908790811061091657634e487b7160e01b600052603260045260246000fd5b602090810291909101015261092c600186612057565b945050505b8061093b81612101565b915050610815565b50949350505050565b6000818152600260205260408120546001600160a01b0316806104805760405162461bcd60e51b815260206004820152602960248201527f4552433732313a206f776e657220717565727920666f72206e6f6e657869737460448201526832b73a103a37b5b2b760b91b6064820152608401610580565b60006001600160a01b038216610a2e5760405162461bcd60e51b815260206004820152602a60248201527f4552433732313a2062616c616e636520717565727920666f7220746865207a65604482015269726f206164647265737360b01b6064820152608401610580565b506001600160a01b031660009081526003602052604090205490565b6000600a543414610a9d5760405162461bcd60e51b815260206004820152601a60248201527f53656e6420656e6f75676820657468657220746f206c697374200000000000006044820152606401610580565b60008211610af85760405162461bcd60e51b815260206004820152602260248201527f4d616b652073757265207468652070726963652069736e2774206e6567617469604482015261766560f01b6064820152608401610580565b610b06600780546001019055565b6000610b1160075490565b9050610b1d3382611416565b610b278185611430565b610b3181846114bb565b9392505050565b610b40611b0b565b506000908152600e6020908152604091829020825160a0810184528154815260018201546001600160a01b03908116938201939093526002820154909216928201929092526003820154606082015260049091015460ff161515608082015290565b606060018054610495906120c6565b6000818152600e6020526040902060038101546002909101546001600160a01b0316348214610c4a576040805162461bcd60e51b81526020600482015260248101919091527f506c65617365207375626d6974207468652061736b696e67207072696365206960448201527f6e206f7264657220746f20636f6d706c657465207468652070757263686173656064820152608401610580565b6000838152600e6020526040902060048101805460ff1916600117905560020180546001600160a01b03191633179055610c88600880546001019055565b610c9330338561127a565b610c9d30846105a5565b600954600a546040516001600160a01b039092169181156108fc0291906000818181858888f19350505050158015610cd9573d6000803e3d6000fd5b506040516001600160a01b038216903480156108fc02916000818181858888f19350505050158015610d0f573d6000803e3d6000fd5b50505050565b610d203383836115a5565b5050565b610d2e3383611191565b610d4a5760405162461bcd60e51b815260040161058090611ff8565b610d0f84848484611674565b6009546001600160a01b03163314610dbc5760405162461bcd60e51b815260206004820152602360248201527f4f6e6c79206f776e65722063616e20757064617465206c697374696e6720707260448201526269636560e81b6064820152608401610580565b600a55565b6060610dcc82611106565b610e325760405162461bcd60e51b815260206004820152603160248201527f45524337323155524953746f726167653a2055524920717565727920666f72206044820152703737b732bc34b9ba32b73a103a37b5b2b760791b6064820152608401610580565b60008281526006602052604081208054610e4b906120c6565b80601f0160208091040260200160405190810160405280929190818152602001828054610e77906120c6565b8015610ec45780601f10610e9957610100808354040283529160200191610ec4565b820191906000526020600020905b815481529060010190602001808311610ea757829003601f168201915b505050505090506000610ee260408051602081019091526000815290565b9050805160001415610ef5575092915050565b815115610f27578082604051602001610f0f929190611ed9565b60405160208183030381529060405292505050919050565b610f30846116a7565b949350505050565b610f40611b0b565b6000610f4b60075490565b6000908152600e6020908152604091829020825160a0810184528154815260018201546001600160a01b03908116938201939093526002820154909216928201929092526003820154606082015260049091015460ff161515608082015292915050565b60606000610fbc60075490565b905060008167ffffffffffffffff811115610fe757634e487b7160e01b600052604160045260246000fd5b60405190808252806020026020018201604052801561102057816020015b61100d611b0b565b8152602001906001900390816110055790505b5090506000805b838110156110ed57600061103c826001612057565b6000818152600e6020908152604091829020825160a0810184528154815260018201546001600160a01b039081169382019390935260028201549092169282019290925260038201546060820152600482015460ff1615156080820152865192935090918690869081106110c057634e487b7160e01b600052603260045260246000fd5b60209081029190910101526110d6600185612057565b9350505080806110e590612101565b915050611027565b50909392505050565b600061110160075490565b905090565b6000908152600260205260409020546001600160a01b0316151590565b600081815260046020526040902080546001600160a01b0319166001600160a01b03841690811790915581906111588261094c565b6001600160a01b03167f8c5be1e5ebec7d5bd14f71427d1e84f3dd0314c0f7b2291e5b200ac8c7c3b92560405160405180910390a45050565b600061119c82611106565b6111fd5760405162461bcd60e51b815260206004820152602c60248201527f4552433732313a206f70657261746f7220717565727920666f72206e6f6e657860448201526b34b9ba32b73a103a37b5b2b760a11b6064820152608401610580565b60006112088361094c565b9050806001600160a01b0316846001600160a01b0316148061124f57506001600160a01b0380821660009081526005602090815260408083209388168352929052205460ff165b80610f305750836001600160a01b031661126884610518565b6001600160a01b031614949350505050565b826001600160a01b031661128d8261094c565b6001600160a01b0316146112f15760405162461bcd60e51b815260206004820152602560248201527f4552433732313a207472616e736665722066726f6d20696e636f72726563742060448201526437bbb732b960d91b6064820152608401610580565b6001600160a01b0382166113535760405162461bcd60e51b8152602060048201526024808201527f4552433732313a207472616e7366657220746f20746865207a65726f206164646044820152637265737360e01b6064820152608401610580565b61135e600082611123565b6001600160a01b0383166000908152600360205260408120805460019290611387908490612083565b90915550506001600160a01b03821660009081526003602052604081208054600192906113b5908490612057565b909155505060008181526002602052604080822080546001600160a01b0319166001600160a01b0386811691821790925591518493918716917fddf252ad1be2c89b69c2b068fc378daa952ba7f163c4a11628f55a4df523b3ef91a4505050565b610d2082826040518060200160405280600081525061177e565b61143982611106565b61149c5760405162461bcd60e51b815260206004820152602e60248201527f45524337323155524953746f726167653a2055524920736574206f66206e6f6e60448201526d32bc34b9ba32b73a103a37b5b2b760911b6064820152608401610580565b600082815260066020908152604090912082516106b692840190611b39565b6040805160a081018252838152306020808301828152338486018181526060860188815260016080880181815260008c8152600e9097529890952096518755925193860180546001600160a01b039586166001600160a01b03199182161790915590516002870180549190951691161790925551600384015592516004909201805492151560ff199093169290921790915561155891908461127a565b604080513081523360208201529081018290526001606082015282907f9339409317fd01fabff48b703019016f49159bacc801ae872d2ca637d226e4c09060800160405180910390a25050565b816001600160a01b0316836001600160a01b031614156116075760405162461bcd60e51b815260206004820152601960248201527f4552433732313a20617070726f766520746f2063616c6c6572000000000000006044820152606401610580565b6001600160a01b03838116600081815260056020908152604080832094871680845294825291829020805460ff191686151590811790915591519182527f17307eab39ab6107e8899845ad3d59bd9653f200f220920489ca2b5937696c31910160405180910390a3505050565b61167f84848461127a565b61168b848484846117b1565b610d0f5760405162461bcd60e51b815260040161058090611fa6565b60606116b282611106565b6117165760405162461bcd60e51b815260206004820152602f60248201527f4552433732314d657461646174613a2055524920717565727920666f72206e6f60448201526e3732bc34b9ba32b73a103a37b5b2b760891b6064820152608401610580565b600061172d60408051602081019091526000815290565b9050600081511161174d5760405180602001604052806000815250610b31565b80611757846118be565b604051602001611768929190611ed9565b6040516020818303038152906040529392505050565b61178883836119d8565b61179560008484846117b1565b6106b65760405162461bcd60e51b815260040161058090611fa6565b60006001600160a01b0384163b156118b357604051630a85bd0160e11b81526001600160a01b0385169063150b7a02906117f5903390899088908890600401611f08565b602060405180830381600087803b15801561180f57600080fd5b505af192505050801561183f575060408051601f3d908101601f1916820190925261183c91810190611de3565b60015b611899573d80801561186d576040519150601f19603f3d011682016040523d82523d6000602084013e611872565b606091505b5080516118915760405162461bcd60e51b815260040161058090611fa6565b805181602001fd5b6001600160e01b031916630a85bd0160e11b149050610f30565b506001949350505050565b6060816118e25750506040805180820190915260018152600360fc1b602082015290565b8160005b811561190c57806118f681612101565b91506119059050600a8361206f565b91506118e6565b60008167ffffffffffffffff81111561193557634e487b7160e01b600052604160045260246000fd5b6040519080825280601f01601f19166020018201604052801561195f576020820181803683370190505b5090505b8415610f3057611974600183612083565b9150611981600a8661211c565b61198c906030612057565b60f81b8183815181106119af57634e487b7160e01b600052603260045260246000fd5b60200101906001600160f81b031916908160001a9053506119d1600a8661206f565b9450611963565b6001600160a01b038216611a2e5760405162461bcd60e51b815260206004820181905260248201527f4552433732313a206d696e7420746f20746865207a65726f20616464726573736044820152606401610580565b611a3781611106565b15611a845760405162461bcd60e51b815260206004820152601c60248201527f4552433732313a20746f6b656e20616c7265616479206d696e746564000000006044820152606401610580565b6001600160a01b0382166000908152600360205260408120805460019290611aad908490612057565b909155505060008181526002602052604080822080546001600160a01b0319166001600160a01b03861690811790915590518392907fddf252ad1be2c89b69c2b068fc378daa952ba7f163c4a11628f55a4df523b3ef908290a45050565b6040805160a08101825260008082526020820181905291810182905260608101829052608081019190915290565b828054611b45906120c6565b90600052602060002090601f016020900481019282611b675760008555611bad565b82601f10611b8057805160ff1916838001178555611bad565b82800160010185558215611bad579182015b82811115611bad578251825591602001919060010190611b92565b50611bb9929150611bbd565b5090565b5b80821115611bb95760008155600101611bbe565b600067ffffffffffffffff80841115611bed57611bed61215c565b604051601f8501601f19908116603f01168101908282118183101715611c1557611c1561215c565b81604052809350858152868686011115611c2e57600080fd5b858560208301376000602087830101525050509392505050565b80356001600160a01b0381168114611c5f57600080fd5b919050565b600060208284031215611c75578081fd5b610b3182611c48565b60008060408385031215611c90578081fd5b611c9983611c48565b9150611ca760208401611c48565b90509250929050565b600080600060608486031215611cc4578081fd5b611ccd84611c48565b9250611cdb60208501611c48565b9150604084013590509250925092565b60008060008060808587031215611d00578081fd5b611d0985611c48565b9350611d1760208601611c48565b925060408501359150606085013567ffffffffffffffff811115611d39578182fd5b8501601f81018713611d49578182fd5b611d5887823560208401611bd2565b91505092959194509250565b60008060408385031215611d76578182fd5b611d7f83611c48565b915060208301358015158114611d93578182fd5b809150509250929050565b60008060408385031215611db0578182fd5b611db983611c48565b946020939093013593505050565b600060208284031215611dd8578081fd5b8135610b3181612172565b600060208284031215611df4578081fd5b8151610b3181612172565b60008060408385031215611e11578182fd5b823567ffffffffffffffff811115611e27578283fd5b8301601f81018513611e37578283fd5b611e4685823560208401611bd2565b95602094909401359450505050565b600060208284031215611e66578081fd5b5035919050565b60008151808452611e8581602086016020860161209a565b601f01601f19169290920160200192915050565b805182526020808201516001600160a01b039081169184019190915260408083015190911690830152606080820151908301526080908101511515910152565b60008351611eeb81846020880161209a565b835190830190611eff81836020880161209a565b01949350505050565b6001600160a01b0385811682528416602082015260408101839052608060608201819052600090611f3b90830184611e6d565b9695505050505050565b6020808252825182820181905260009190848201906040850190845b81811015611f8757611f74838551611e99565b9284019260a09290920191600101611f61565b50909695505050505050565b602081526000610b316020830184611e6d565b60208082526032908201527f4552433732313a207472616e7366657220746f206e6f6e20455243373231526560408201527131b2b4bb32b91034b6b83632b6b2b73a32b960711b606082015260800190565b60208082526031908201527f4552433732313a207472616e736665722063616c6c6572206973206e6f74206f6040820152701ddb995c881b9bdc88185c1c1c9bdd9959607a1b606082015260800190565b60a081016104808284611e99565b6000821982111561206a5761206a612130565b500190565b60008261207e5761207e612146565b500490565b60008282101561209557612095612130565b500390565b60005b838110156120b557818101518382015260200161209d565b83811115610d0f5750506000910152565b600181811c908216806120da57607f821691505b602082108114156120fb57634e487b7160e01b600052602260045260246000fd5b50919050565b600060001982141561211557612115612130565b5060010190565b60008261212b5761212b612146565b500690565b634e487b7160e01b600052601160045260246000fd5b634e487b7160e01b600052601260045260246000fd5b634e487b7160e01b600052604160045260246000fd5b6001600160e01b03198116811461218857600080fd5b5056fea2646970667358221220bc83bc4c711c71f78ca55ce5c4ff3743a24fb71e243e05dbaa2ab6a6b77bd47664736f6c63430008040033",
  "linkReferences": {},
  "deployedLinkReferences": {}
}